{
  "contractName": "Tickets",
  "abi": [
    {
      "inputs": [],
      "stateMutability": "nonpayable",
      "type": "constructor"
    },
    {
      "inputs": [],
      "name": "owner",
      "outputs": [
        {
          "internalType": "address",
          "name": "",
          "type": "address"
        }
      ],
      "stateMutability": "view",
      "type": "function",
      "constant": true
    },
    {
      "inputs": [
        {
          "internalType": "uint256",
          "name": "",
          "type": "uint256"
        }
      ],
      "name": "tickets",
      "outputs": [
        {
          "internalType": "uint256",
          "name": "id",
          "type": "uint256"
        },
        {
          "internalType": "uint256",
          "name": "price",
          "type": "uint256"
        },
        {
          "internalType": "address",
          "name": "owner",
          "type": "address"
        }
      ],
      "stateMutability": "view",
      "type": "function",
      "constant": true
    },
    {
      "inputs": [
        {
          "internalType": "uint256",
          "name": "_index",
          "type": "uint256"
        }
      ],
      "name": "buyTicket",
      "outputs": [],
      "stateMutability": "payable",
      "type": "function",
      "payable": true
    },
    {
      "inputs": [],
      "name": "getABI",
      "outputs": [
        {
          "internalType": "string",
          "name": "",
          "type": "string"
        }
      ],
      "stateMutability": "pure",
      "type": "function",
      "constant": true
    }
  ],
  "bytecode": "0x6080604052336000806101000a81548173ffffffffffffffffffffffffffffffffffffffff021916908373ffffffffffffffffffffffffffffffffffffffff16021790555034801561005057600080fd5b5060005b600a8110156100ee57620186a0600182600a8110610075576100746100f4565b5b60030201600101819055506000600182600a8110610096576100956100f4565b5b6003020160020160006101000a81548173ffffffffffffffffffffffffffffffffffffffff021916908373ffffffffffffffffffffffffffffffffffffffff16021790555080806100e69061015c565b915050610054565b506101a4565b7f4e487b7100000000000000000000000000000000000000000000000000000000600052603260045260246000fd5b7f4e487b7100000000000000000000000000000000000000000000000000000000600052601160045260246000fd5b6000819050919050565b600061016782610152565b91507fffffffffffffffffffffffffffffffffffffffffffffffffffffffffffffffff820361019957610198610123565b5b600182019050919050565b6104fe806101b36000396000f3fe60806040526004361061003f5760003560e01c806350b447121461004457806367dd74ca146100835780638da5cb5b1461009f578063d83baed8146100ca575b600080fd5b34801561005057600080fd5b5061006b600480360381019061006691906102dd565b6100f5565b60405161007a9392919061035a565b60405180910390f35b61009d600480360381019061009891906102dd565b610145565b005b3480156100ab57600080fd5b506100b4610258565b6040516100c19190610391565b60405180910390f35b3480156100d657600080fd5b506100df61027c565b6040516100ec9190610445565b60405180910390f35b600181600a811061010557600080fd5b600302016000915090508060000154908060010154908060020160009054906101000a900473ffffffffffffffffffffffffffffffffffffffff16905083565b600a81108015610156575060008110155b61015f57600080fd5b600173ffffffffffffffffffffffffffffffffffffffff16600182600a811061018b5761018a610467565b5b6003020160020160009054906101000a900473ffffffffffffffffffffffffffffffffffffffff1673ffffffffffffffffffffffffffffffffffffffff16146101d357600080fd5b600181600a81106101e7576101e6610467565b5b60030201600101543410156101fb57600080fd5b33600182600a81106102105761020f610467565b5b6003020160020160006101000a81548173ffffffffffffffffffffffffffffffffffffffff021916908373ffffffffffffffffffffffffffffffffffffffff16021790555050565b60008054906101000a900473ffffffffffffffffffffffffffffffffffffffff1681565b606060006040518060600160405280603281526020016104976032913990508091505090565b600080fd5b6000819050919050565b6102ba816102a7565b81146102c557600080fd5b50565b6000813590506102d7816102b1565b92915050565b6000602082840312156102f3576102f26102a2565b5b6000610301848285016102c8565b91505092915050565b610313816102a7565b82525050565b600073ffffffffffffffffffffffffffffffffffffffff82169050919050565b600061034482610319565b9050919050565b61035481610339565b82525050565b600060608201905061036f600083018661030a565b61037c602083018561030a565b610389604083018461034b565b949350505050565b60006020820190506103a6600083018461034b565b92915050565b600081519050919050565b600082825260208201905092915050565b60005b838110156103e65780820151818401526020810190506103cb565b838111156103f5576000848401525b50505050565b6000601f19601f8301169050919050565b6000610417826103ac565b61042181856103b7565b93506104318185602086016103c8565b61043a816103fb565b840191505092915050565b6000602082019050818103600083015261045f818461040c565b905092915050565b7f4e487b7100000000000000000000000000000000000000000000000000000000600052603260045260246000fdfe7b227469746c65223a20225469636b65743132222c20226465736372697074696f6e223a20225469636b657420233132227da264697066735822122051996711a669cc0f7e22fb80b6a804d385a21238325b23dc9cdd70b482d4628a64736f6c634300080d0033",
  "immutableReferences": {},
  "source": "pragma solidity >=0.4.22 <0.9.0;\r\nuint256 constant TOTAL_TICKETS = 10;\r\n\r\ncontract Tickets {\r\n    address public owner = msg.sender;\r\n\r\n    struct Ticket {\r\n        uint256 id;\r\n        uint256 price;\r\n        address owner;\r\n    }\r\n\r\n    Ticket[TOTAL_TICKETS] public tickets;\r\n\r\n    constructor () {\r\n        for(uint256 i=0; i < TOTAL_TICKETS; i++){\r\n            tickets[i].price = 1e5; // 1 MTC\r\n            tickets[i].owner = address(0x0);\r\n        }\r\n    }\r\n\r\n    function buyTicket(uint256 _index) external payable {\r\n        require(_index < TOTAL_TICKETS && _index >= 0);\r\n        require(tickets[_index].owner == address(0x1));\r\n        require(msg.value >= tickets[_index].price);\r\n        tickets[_index].owner = msg.sender;\r\n    }\r\n     function getABI() public pure returns (string memory) {\r\n        string memory json = '{\"title\": \"Ticket12\", \"description\": \"Ticket #12\"}';\r\n        return json;\r\n    }\r\n  \r\n}",
  "sourcePath": "C:\\Users\\Student\\Desktop\\MetaCoin\\contracts\\Tickets.sol",
  "compiler": {
    "name": "solc",
    "version": "0.8.13+commit.abaa5c0e.Emscripten.clang"
  },
  "schemaVersion": "3.4.16",
  "updatedAt": "2023-10-04T18:29:11.193Z",
  "networkType": "ethereum",
  "devdoc": {
    "kind": "dev",
    "methods": {},
    "version": 1
  },
  "userdoc": {
    "kind": "user",
    "methods": {},
    "version": 1
  }
}